{
  "contractName": "SolTweet",
  "abi": [
    {
      "constant": true,
      "inputs": [
        {
          "name": "",
          "type": "uint256"
        }
      ],
      "name": "users",
      "outputs": [
        {
          "name": "username",
          "type": "string"
        },
        {
          "name": "followerCount",
          "type": "uint256"
        }
      ],
      "payable": false,
      "stateMutability": "view",
      "type": "function"
    },
    {
      "constant": true,
      "inputs": [
        {
          "name": "",
          "type": "uint256"
        },
        {
          "name": "",
          "type": "uint256"
        }
      ],
      "name": "followingMapping",
      "outputs": [
        {
          "name": "",
          "type": "bool"
        }
      ],
      "payable": false,
      "stateMutability": "view",
      "type": "function"
    },
    {
      "constant": true,
      "inputs": [
        {
          "name": "",
          "type": "uint256"
        },
        {
          "name": "",
          "type": "uint256"
        }
      ],
      "name": "followingMappingKeys",
      "outputs": [
        {
          "name": "",
          "type": "uint256"
        }
      ],
      "payable": false,
      "stateMutability": "view",
      "type": "function"
    },
    {
      "constant": true,
      "inputs": [
        {
          "name": "",
          "type": "uint256"
        }
      ],
      "name": "tweets",
      "outputs": [
        {
          "name": "text",
          "type": "string"
        },
        {
          "name": "likes",
          "type": "uint256"
        }
      ],
      "payable": false,
      "stateMutability": "view",
      "type": "function"
    },
    {
      "anonymous": false,
      "inputs": [
        {
          "indexed": false,
          "name": "userId",
          "type": "uint256"
        }
      ],
      "name": "NewUser",
      "type": "event"
    },
    {
      "anonymous": false,
      "inputs": [
        {
          "indexed": false,
          "name": "tweetId",
          "type": "uint256"
        },
        {
          "indexed": true,
          "name": "userId",
          "type": "uint256"
        }
      ],
      "name": "NewTweet",
      "type": "event"
    },
    {
      "constant": true,
      "inputs": [
        {
          "name": "_userId",
          "type": "uint256"
        }
      ],
      "name": "_getFollowingMappingKeys",
      "outputs": [
        {
          "name": "",
          "type": "uint256[]"
        }
      ],
      "payable": false,
      "stateMutability": "view",
      "type": "function"
    },
    {
      "constant": true,
      "inputs": [],
      "name": "_getNumberOfTweets",
      "outputs": [
        {
          "name": "",
          "type": "uint256"
        }
      ],
      "payable": false,
      "stateMutability": "view",
      "type": "function"
    },
    {
      "constant": false,
      "inputs": [
        {
          "name": "_username",
          "type": "string"
        }
      ],
      "name": "_createUser",
      "outputs": [
        {
          "name": "",
          "type": "uint256"
        }
      ],
      "payable": false,
      "stateMutability": "nonpayable",
      "type": "function"
    },
    {
      "constant": false,
      "inputs": [
        {
          "name": "_userId",
          "type": "uint256"
        },
        {
          "name": "_tweetText",
          "type": "string"
        }
      ],
      "name": "_createTweet",
      "outputs": [
        {
          "name": "",
          "type": "uint256"
        }
      ],
      "payable": false,
      "stateMutability": "nonpayable",
      "type": "function"
    },
    {
      "constant": false,
      "inputs": [
        {
          "name": "_userId",
          "type": "uint256"
        },
        {
          "name": "_tweetId",
          "type": "uint256"
        }
      ],
      "name": "_likeTweet",
      "outputs": [],
      "payable": false,
      "stateMutability": "nonpayable",
      "type": "function"
    },
    {
      "constant": false,
      "inputs": [
        {
          "name": "_userId",
          "type": "uint256"
        },
        {
          "name": "_userIdToFollow",
          "type": "uint256"
        }
      ],
      "name": "_follow",
      "outputs": [],
      "payable": false,
      "stateMutability": "nonpayable",
      "type": "function"
    },
    {
      "constant": false,
      "inputs": [
        {
          "name": "_userId",
          "type": "uint256"
        },
        {
          "name": "_userIdToUnFollow",
          "type": "uint256"
        }
      ],
      "name": "_unFollow",
      "outputs": [],
      "payable": false,
      "stateMutability": "nonpayable",
      "type": "function"
    }
  ],
  "bytecode": "0x608060405234801561001057600080fd5b50611212806100206000396000f3006080604052600436106100af576000357c0100000000000000000000000000000000000000000000000000000000900463ffffffff168063185d0ec4146100b4578063365b98b21461013b5780633e940afe146101e8578063614b371b1461021357806365be663f1461024a5780639f57faa114610299578063a93769a014610316578063cac1381d14610361578063cd42bf6014610398578063e8d857b01461041a578063f7d69a3e146104c7575b600080fd5b3480156100c057600080fd5b5061012560048036038101908080359060200190929190803590602001908201803590602001908080601f01602080910402602001604051908101604052809392919081815260200183838082843782019150505050505091929192905050506104fe565b6040518082815260200191505060405180910390f35b34801561014757600080fd5b50610166600480360381019080803590602001909291905050506106b1565b6040518080602001838152602001828103825284818151815260200191508051906020019080838360005b838110156101ac578082015181840152602081019050610191565b50505050905090810190601f1680156101d95780820380516001836020036101000a031916815260200191505b50935050505060405180910390f35b3480156101f457600080fd5b506101fd61077c565b6040518082815260200191505060405180910390f35b34801561021f57600080fd5b506102486004803603810190808035906020019092919080359060200190929190505050610789565b005b34801561025657600080fd5b5061027f60048036038101908080359060200190929190803590602001909291905050506109cc565b604051808215151515815260200191505060405180910390f35b3480156102a557600080fd5b50610300600480360381019080803590602001908201803590602001908080601f01602080910402602001604051908101604052809392919081815260200183838082843782019150505050505091929192905050506109fb565b6040518082815260200191505060405180910390f35b34801561032257600080fd5b5061034b6004803603810190808035906020019092919080359060200190929190505050610b19565b6040518082815260200191505060405180910390f35b34801561036d57600080fd5b506103966004803603810190808035906020019092919080359060200190929190505050610b49565b005b3480156103a457600080fd5b506103c360048036038101908080359060200190929190505050610ca1565b6040518080602001828103825283818151815260200191508051906020019060200280838360005b838110156104065780820151818401526020810190506103eb565b505050509050019250505060405180910390f35b34801561042657600080fd5b5061044560048036038101908080359060200190929190505050610d0c565b6040518080602001838152602001828103825284818151815260200191508051906020019080838360005b8381101561048b578082015181840152602081019050610470565b50505050905090810190601f1680156104b85780820380516001836020036101000a031916815260200191505b50935050505060405180910390f35b3480156104d357600080fd5b506104fc6004803603810190808035906020019092919080359060200190929190505050610dd7565b005b6000803373ffffffffffffffffffffffffffffffffffffffff1660008086815260200190815260200160002060009054906101000a900473ffffffffffffffffffffffffffffffffffffffff1673ffffffffffffffffffffffffffffffffffffffff161415156105d6576040517f08c379a00000000000000000000000000000000000000000000000000000000081526004018080602001828103825260138152602001807f756e617574686f72697a65642073656e6465720000000000000000000000000081525060200191505060405180910390fd5b610655600160066040805190810160405280878152602001600081525090806001815401808255809150509060018203906000526020600020906002020160009091929091909150600082015181600001908051906020019061063a929190611127565b5060208201518160010155505061101390919063ffffffff16565b9050836001600083815260200190815260200160002081905550837f1127c70e027a528578ca2cbb910e4c85e11d3c755fb4cc0a5faeb1b65e03348a826040518082815260200191505060405180910390a28091505092915050565b6005818154811015156106c057fe5b9060005260206000209060020201600091509050806000018054600181600116156101000203166002900480601f01602080910402602001604051908101604052809291908181526020018280546001816001161561010002031660029004801561076c5780601f106107415761010080835404028352916020019161076c565b820191906000526020600020905b81548152906001019060200180831161074f57829003601f168201915b5050505050908060010154905082565b6000600680549050905090565b6000803373ffffffffffffffffffffffffffffffffffffffff1660008086815260200190815260200160002060009054906101000a900473ffffffffffffffffffffffffffffffffffffffff1673ffffffffffffffffffffffffffffffffffffffff16141515610861576040517f08c379a00000000000000000000000000000000000000000000000000000000081526004018080602001828103825260138152602001807f756e617574686f72697a65642073656e6465720000000000000000000000000081525060200191505060405180910390fd5b60026000858560405160200180838152602001828152602001925050506040516020818303038152906040526040518082805190602001908083835b6020831015156108c2578051825260208201915060208101905060208303925061089d565b6001836020036101000a038019825116818451168082178552505050505050905001915050604051809103902060019004815260200190815260200160002060009054906101000a900460ff16915081151515610987576040517f08c379a00000000000000000000000000000000000000000000000000000000081526004018080602001828103825260188152602001807f7573657220616c7265616479206c696b6564207477656574000000000000000081525060200191505060405180910390fd5b60068381548110151561099657fe5b906000526020600020906002020190506109be6001826001015461109d90919063ffffffff16565b816001018190555050505050565b60036020528160005260406000206020528060005260406000206000915091509054906101000a900460ff1681565b6000610a056111a7565b60008382600001819052506000826020018181525050610a856001600584908060018154018082558091505090600182039060005260206000209060020201600090919290919091506000820151816000019080519060200190610a6a929190611127565b5060208201518160010155505061101390919063ffffffff16565b90503360008083815260200190815260200160002060006101000a81548173ffffffffffffffffffffffffffffffffffffffff021916908373ffffffffffffffffffffffffffffffffffffffff1602179055507f70b8515497d1bc3e1ae7202216a929ffa07f703541985ee77912b7d1390dfbdb816040518082815260200191505060405180910390a18092505050919050565b600460205281600052604060002081815481101515610b3457fe5b90600052602060002001600091509150505481565b60003373ffffffffffffffffffffffffffffffffffffffff1660008085815260200190815260200160002060009054906101000a900473ffffffffffffffffffffffffffffffffffffffff1673ffffffffffffffffffffffffffffffffffffffff16141515610c20576040517f08c379a00000000000000000000000000000000000000000000000000000000081526004018080602001828103825260138152602001807f756e617574686f72697a65642073656e6465720000000000000000000000000081525060200191505060405180910390fd5b600582815481101515610c2f57fe5b90600052602060002090600202019050600060036000858152602001908152602001600020600084815260200190815260200160002060006101000a81548160ff021916908315150217905550610c946001826001015461101390919063ffffffff16565b8160010181905550505050565b606060046000838152602001908152602001600020805480602002602001604051908101604052809291908181526020018280548015610d0057602002820191906000526020600020905b815481526020019060010190808311610cec575b50505050509050919050565b600681815481101515610d1b57fe5b9060005260206000209060020201600091509050806000018054600181600116156101000203166002900480601f016020809104026020016040519081016040528092919081815260200182805460018160011615610100020316600290048015610dc75780601f10610d9c57610100808354040283529160200191610dc7565b820191906000526020600020905b815481529060010190602001808311610daa57829003601f168201915b5050505050908060010154905082565b60003373ffffffffffffffffffffffffffffffffffffffff1660008085815260200190815260200160002060009054906101000a900473ffffffffffffffffffffffffffffffffffffffff1673ffffffffffffffffffffffffffffffffffffffff16141515610eae576040517f08c379a00000000000000000000000000000000000000000000000000000000081526004018080602001828103825260138152602001807f756e617574686f72697a65642073656e6465720000000000000000000000000081525060200191505060405180910390fd5b60036000848152602001908152602001600020600083815260200190815260200160002060009054906101000a900460ff16151515610f55576040517f08c379a00000000000000000000000000000000000000000000000000000000081526004018080602001828103825260168152602001807f7573657220616c726561647920666f6c6c6f77696e670000000000000000000081525060200191505060405180910390fd5b600582815481101515610f6457fe5b90600052602060002090600202019050610f8c6001826001015461109d90919063ffffffff16565b8160010181905550600160036000858152602001908152602001600020600084815260200190815260200160002060006101000a81548160ff02191690831515021790555060046000848152602001908152602001600020829080600181540180825580915050906001820390600052602060002001600090919290919091505550505050565b60008083831115151561108e576040517f08c379a00000000000000000000000000000000000000000000000000000000081526004018080602001828103825260078152602001807f737562206572720000000000000000000000000000000000000000000000000081525060200191505060405180910390fd5b82840390508091505092915050565b600080828401905083811015151561111d576040517f08c379a00000000000000000000000000000000000000000000000000000000081526004018080602001828103825260078152602001807f616464206572720000000000000000000000000000000000000000000000000081525060200191505060405180910390fd5b8091505092915050565b828054600181600116156101000203166002900490600052602060002090601f016020900481019282601f1061116857805160ff1916838001178555611196565b82800160010185558215611196579182015b8281111561119557825182559160200191906001019061117a565b5b5090506111a391906111c1565b5090565b604080519081016040528060608152602001600081525090565b6111e391905b808211156111df5760008160009055506001016111c7565b5090565b905600a165627a7a7230582038dacd53b8d8307ec73a4680fb87727b4c3e1237694a99f53a00ada80b72087d0029",
  "source": "pragma solidity ^0.4.24;\n\nimport \"./SafeMath.sol\";\n\n// TODO fixing following mapping for notifying all followers\n// TODO break out user and tweet into separate files\n\ncontract SolTweet {\n    using SafeMath for uint256;\n\n    event NewUser(uint userId);\n    event NewTweet(uint tweetId, uint indexed userId);\n\n    mapping (uint => address) userToOwner;\n    mapping (uint => uint) tweetToUserId;\n    mapping (uint => bool) userHasLikedTweet;\n    mapping (uint => mapping (uint => bool)) public followingMapping;\n    mapping (uint => uint[]) public followingMappingKeys;\n\n    struct User {\n        string username;\n        uint followerCount;\n    }\n\n    struct Tweet {\n        string text;\n        uint likes;\n    }\n\n    User[] public users;\n    Tweet[] public tweets;\n\n    function _getFollowingMappingKeys(uint _userId) public view returns (uint[] memory) {\n        return followingMappingKeys[_userId];\n    }\n\n    function _getNumberOfTweets() public view returns (uint) {\n        return tweets.length;\n    }\n\n    function _createUser(string memory _username) public returns (uint) {\n        User memory newUser;\n        newUser.username = _username;\n        newUser.followerCount = 0;\n        uint id = (users.push(newUser)).sub(1);\n        userToOwner[id] = msg.sender;\n        emit NewUser(id);\n        return id;\n    }\n\n    function _createTweet(uint _userId, string memory _tweetText) public returns (uint) {\n        require(userToOwner[_userId] == msg.sender, \"unauthorized sender\");\n        uint id = (tweets.push(Tweet(_tweetText, 0))).sub(1);\n        tweetToUserId[id] = _userId;\n        // notify followers\n\n        //look up all the users follwers and let them know about the new tweet\n        // following[];\n        emit NewTweet(id, _userId);\n        return id;\n    }\n\n    function _likeTweet(uint _userId, uint _tweetId) public {\n        require(userToOwner[_userId] == msg.sender, \"unauthorized sender\");\n        bool userLikedTweet = userHasLikedTweet[uint(keccak256(abi.encodePacked(_userId, _tweetId)))];\n        require(!userLikedTweet, \"user already liked tweet\");\n        Tweet storage myTweet = tweets[_tweetId];\n        myTweet.likes = myTweet.likes.add(1);\n    }\n\n    function _follow(uint _userId, uint _userIdToFollow) public {\n        require(userToOwner[_userId] == msg.sender, \"unauthorized sender\");\n        //check that the users isn't already following\n        require(!followingMapping[_userId][_userIdToFollow], \"user already following\");\n        \n        //add the follower and increase follower count\n        // following[_userId] = _userIdToFollow;\n        User storage userToFollow = users[_userIdToFollow];\n        userToFollow.followerCount = userToFollow.followerCount.add(1);\n        followingMapping[_userId][_userIdToFollow] = true;\n        followingMappingKeys[_userId].push(_userIdToFollow);\n    }\n\n    function _unFollow(uint _userId, uint _userIdToUnFollow) public {\n        require(userToOwner[_userId] == msg.sender, \"unauthorized sender\");\n        //check that the users is already following\n        // require(following[_userId] == _userIdToUnFollow, \"sender is not following\");\n        \n        //remove the follower and decrease follower count\n        // delete following[_userId];\n        User storage userToUnFollow = users[_userIdToUnFollow];\n        followingMapping[_userId][_userIdToUnFollow] = false;\n        userToUnFollow.followerCount = userToUnFollow.followerCount.sub(1);\n    }\n}",
  "sourcePath": "/Users/mjohansen/projects/solidity/soltweet/box/contracts/SolTweet.sol",
  "compiler": {
    "name": "solc",
    "version": "0.4.24+commit.e67f0147.Emscripten.clang"
  },
  "schemaVersion": "2.0.1",
  "updatedAt": "2018-12-23T07:30:21.074Z"
}