{
  "contractName": "SolTweet",
  "abi": [
    {
      "constant": true,
      "inputs": [
        {
          "name": "",
          "type": "uint256"
        }
      ],
      "name": "users",
      "outputs": [
        {
          "name": "username",
          "type": "string"
        },
        {
          "name": "followerCount",
          "type": "uint256"
        }
      ],
      "payable": false,
      "stateMutability": "view",
      "type": "function"
    },
    {
      "constant": true,
      "inputs": [
        {
          "name": "",
          "type": "uint256"
        }
      ],
      "name": "tweets",
      "outputs": [
        {
          "name": "text",
          "type": "string"
        },
        {
          "name": "likes",
          "type": "uint256"
        }
      ],
      "payable": false,
      "stateMutability": "view",
      "type": "function"
    },
    {
      "anonymous": false,
      "inputs": [
        {
          "indexed": false,
          "name": "userId",
          "type": "uint256"
        }
      ],
      "name": "NewUser",
      "type": "event"
    },
    {
      "anonymous": false,
      "inputs": [
        {
          "indexed": false,
          "name": "tweetId",
          "type": "uint256"
        },
        {
          "indexed": true,
          "name": "userId",
          "type": "uint256"
        }
      ],
      "name": "NewTweet",
      "type": "event"
    },
    {
      "constant": false,
      "inputs": [
        {
          "name": "_username",
          "type": "string"
        }
      ],
      "name": "_createUser",
      "outputs": [],
      "payable": false,
      "stateMutability": "nonpayable",
      "type": "function"
    },
    {
      "constant": false,
      "inputs": [
        {
          "name": "_userId",
          "type": "uint256"
        },
        {
          "name": "_tweetText",
          "type": "string"
        }
      ],
      "name": "_createTweet",
      "outputs": [],
      "payable": false,
      "stateMutability": "nonpayable",
      "type": "function"
    },
    {
      "constant": false,
      "inputs": [
        {
          "name": "_userId",
          "type": "uint256"
        },
        {
          "name": "_tweetId",
          "type": "uint256"
        }
      ],
      "name": "_likeTweet",
      "outputs": [],
      "payable": false,
      "stateMutability": "nonpayable",
      "type": "function"
    },
    {
      "constant": false,
      "inputs": [
        {
          "name": "_userId",
          "type": "uint256"
        },
        {
          "name": "_userIdToFollow",
          "type": "uint256"
        }
      ],
      "name": "_follow",
      "outputs": [],
      "payable": false,
      "stateMutability": "nonpayable",
      "type": "function"
    },
    {
      "constant": false,
      "inputs": [
        {
          "name": "_userId",
          "type": "uint256"
        },
        {
          "name": "_userIdToUnFollow",
          "type": "uint256"
        }
      ],
      "name": "_unFollow",
      "outputs": [],
      "payable": false,
      "stateMutability": "nonpayable",
      "type": "function"
    }
  ],
  "bytecode": "0x608060405234801561001057600080fd5b50610eb9806100206000396000f3fe608060405260043610610083576000357c0100000000000000000000000000000000000000000000000000000000900463ffffffff168063185d0ec414610088578063365b98b21461015a578063614b371b146102155780639f57faa11461025a578063cac1381d14610322578063e8d857b014610367578063f7d69a3e14610422575b600080fd5b34801561009457600080fd5b50610158600480360360408110156100ab57600080fd5b8101908080359060200190929190803590602001906401000000008111156100d257600080fd5b8201836020820111156100e457600080fd5b8035906020019184600183028401116401000000008311171561010657600080fd5b91908080601f016020809104026020016040519081016040528093929190818152602001838380828437600081840152601f19601f820116905080830192505050505050509192919290505050610467565b005b34801561016657600080fd5b506101936004803603602081101561017d57600080fd5b8101908080359060200190929190505050610614565b6040518080602001838152602001828103825284818151815260200191508051906020019080838360005b838110156101d95780820151818401526020810190506101be565b50505050905090810190601f1680156102065780820380516001836020036101000a031916815260200191505b50935050505060405180910390f35b34801561022157600080fd5b506102586004803603604081101561023857600080fd5b8101908080359060200190929190803590602001909291905050506106df565b005b34801561026657600080fd5b506103206004803603602081101561027d57600080fd5b810190808035906020019064010000000081111561029a57600080fd5b8201836020820111156102ac57600080fd5b803590602001918460018302840111640100000000831117156102ce57600080fd5b91908080601f016020809104026020016040519081016040528093929190818152602001838380828437600081840152601f19601f8201169050808301925050505050505091929192905050506108bb565b005b34801561032e57600080fd5b506103656004803603604081101561034557600080fd5b8101908080359060200190929190803590602001909291905050506109d2565b005b34801561037357600080fd5b506103a06004803603602081101561038a57600080fd5b8101908080359060200190929190505050610ae0565b6040518080602001838152602001828103825284818151815260200191508051906020019080838360005b838110156103e65780820151818401526020810190506103cb565b50505050905090810190601f1680156104135780820380516001836020036101000a031916815260200191505b50935050505060405180910390f35b34801561042e57600080fd5b506104656004803603604081101561044557600080fd5b810190808035906020019092919080359060200190929190505050610bab565b005b3373ffffffffffffffffffffffffffffffffffffffff1660008084815260200190815260200160002060009054906101000a900473ffffffffffffffffffffffffffffffffffffffff1673ffffffffffffffffffffffffffffffffffffffff1614151561053c576040517f08c379a00000000000000000000000000000000000000000000000000000000081526004018080602001828103825260138152602001807f756e617574686f72697a65642073656e6465720000000000000000000000000081525060200191505060405180910390fd5b60006105bd60016005604080519081016040528086815260200160008152509080600181540180825580915050906001820390600052602060002090600202016000909192909190915060008201518160000190805190602001906105a2929190610dce565b50602082015181600101555050610cb990919063ffffffff16565b9050826001600083815260200190815260200160002081905550827f1127c70e027a528578ca2cbb910e4c85e11d3c755fb4cc0a5faeb1b65e03348a826040518082815260200191505060405180910390a2505050565b60048181548110151561062357fe5b9060005260206000209060020201600091509050806000018054600181600116156101000203166002900480601f0160208091040260200160405190810160405280929190818152602001828054600181600116156101000203166002900480156106cf5780601f106106a4576101008083540402835291602001916106cf565b820191906000526020600020905b8154815290600101906020018083116106b257829003601f168201915b5050505050908060010154905082565b3373ffffffffffffffffffffffffffffffffffffffff1660008084815260200190815260200160002060009054906101000a900473ffffffffffffffffffffffffffffffffffffffff1673ffffffffffffffffffffffffffffffffffffffff161415156107b4576040517f08c379a00000000000000000000000000000000000000000000000000000000081526004018080602001828103825260138152602001807f756e617574686f72697a65642073656e6465720000000000000000000000000081525060200191505060405180910390fd5b600060026000848460405160200180838152602001828152602001925050506040516020818303038152906040528051906020012060019004815260200190815260200160002060009054906101000a900460ff16905080151515610881576040517f08c379a00000000000000000000000000000000000000000000000000000000081526004018080602001828103825260188152602001807f7573657220616c7265616479206c696b6564207477656574000000000000000081525060200191505060405180910390fd5b6108b5600160058481548110151561089557fe5b906000526020600020906002020160010154610d4490919063ffffffff16565b50505050565b6108c3610e4e565b818160000181905250600081602001818152505060006109436001600484908060018154018082558091505090600182039060005260206000209060020201600090919290919091506000820151816000019080519060200190610928929190610dce565b50602082015181600101555050610cb990919063ffffffff16565b90503360008083815260200190815260200160002060006101000a81548173ffffffffffffffffffffffffffffffffffffffff021916908373ffffffffffffffffffffffffffffffffffffffff1602179055507f70b8515497d1bc3e1ae7202216a929ffa07f703541985ee77912b7d1390dfbdb816040518082815260200191505060405180910390a1505050565b3373ffffffffffffffffffffffffffffffffffffffff1660008084815260200190815260200160002060009054906101000a900473ffffffffffffffffffffffffffffffffffffffff1673ffffffffffffffffffffffffffffffffffffffff16141515610aa7576040517f08c379a00000000000000000000000000000000000000000000000000000000081526004018080602001828103825260138152602001807f756e617574686f72697a65642073656e6465720000000000000000000000000081525060200191505060405180910390fd5b610adb6001600484815481101515610abb57fe5b906000526020600020906002020160010154610cb990919063ffffffff16565b505050565b600581815481101515610aef57fe5b9060005260206000209060020201600091509050806000018054600181600116156101000203166002900480601f016020809104026020016040519081016040528092919081815260200182805460018160011615610100020316600290048015610b9b5780601f10610b7057610100808354040283529160200191610b9b565b820191906000526020600020905b815481529060010190602001808311610b7e57829003601f168201915b5050505050908060010154905082565b3373ffffffffffffffffffffffffffffffffffffffff1660008084815260200190815260200160002060009054906101000a900473ffffffffffffffffffffffffffffffffffffffff1673ffffffffffffffffffffffffffffffffffffffff16141515610c80576040517f08c379a00000000000000000000000000000000000000000000000000000000081526004018080602001828103825260138152602001807f756e617574686f72697a65642073656e6465720000000000000000000000000081525060200191505060405180910390fd5b610cb46001600484815481101515610c9457fe5b906000526020600020906002020160010154610d4490919063ffffffff16565b505050565b6000828211151515610d33576040517f08c379a00000000000000000000000000000000000000000000000000000000081526004018080602001828103825260078152602001807f737562206572720000000000000000000000000000000000000000000000000081525060200191505060405180910390fd5b600082840390508091505092915050565b6000808284019050838110151515610dc4576040517f08c379a00000000000000000000000000000000000000000000000000000000081526004018080602001828103825260078152602001807f616464206572720000000000000000000000000000000000000000000000000081525060200191505060405180910390fd5b8091505092915050565b828054600181600116156101000203166002900490600052602060002090601f016020900481019282601f10610e0f57805160ff1916838001178555610e3d565b82800160010185558215610e3d579182015b82811115610e3c578251825591602001919060010190610e21565b5b509050610e4a9190610e68565b5090565b604080519081016040528060608152602001600081525090565b610e8a91905b80821115610e86576000816000905550600101610e6e565b5090565b9056fea165627a7a723058208adaaf119aa8569eae7e62d75938c810436cc0cfb9e0199a5c10e50f9fe7b4d20029",
  "source": "pragma solidity ^0.5.0;\n\nimport \"./SafeMath.sol\";\n\n// TODO fixing following mapping for notifying all followers\n// TODO break out user and tweet into separate files\n\ncontract SolTweet {\n    using SafeMath for uint256;\n\n    event NewUser(uint userId);\n    event NewTweet(uint tweetId, uint indexed userId);\n\n    mapping (uint => address) userToOwner;\n    mapping (uint => uint) tweetToUserId;\n    mapping (uint => bool) userHasLikedTweet;\n    //maps follower => user they follow\n    mapping (uint => bool) hasFollowed;\n\n    User[] public users;\n    Tweet[] public tweets;\n\n    struct User {\n        string username;\n        uint followerCount;\n    }\n\n    struct Tweet {\n        string text;\n        uint likes;\n    }\n\n    function _createUser(string memory _username) public {\n        User memory newUser;\n        newUser.username = _username;\n        newUser.followerCount = 0;    \n        uint id = (users.push(newUser)).sub(1);\n        userToOwner[id] = msg.sender;\n        emit NewUser(id);\n    }\n\n    function _createTweet(uint _userId, string memory _tweetText) public {\n        require(userToOwner[_userId] == msg.sender, \"unauthorized sender\");\n        uint id = (tweets.push(Tweet(_tweetText, 0))).sub(1);\n        tweetToUserId[id] = _userId;\n        // notify followers\n\n        //look up all the users follwers and let them know about the new tweet\n        // following[];\n        emit NewTweet(id, _userId);\n    }\n\n    function _likeTweet(uint _userId, uint _tweetId) public {\n        require(userToOwner[_userId] == msg.sender, \"unauthorized sender\");\n        bool userLikedTweet = userHasLikedTweet[uint(keccak256(abi.encodePacked(_userId, _tweetId)))];\n        require(!userLikedTweet, \"user already liked tweet\");\n        tweets[_tweetId].likes.add(1);\n    }\n\n    function _follow(uint _userId, uint _userIdToFollow) public {\n        require(userToOwner[_userId] == msg.sender, \"unauthorized sender\");\n        // bool userHasFollowed = userHasLikedTweet[uint(keccak256(abi.encodePacked(_userId, _userIdToFollow)))];\n        //check that the users isn't already following\n        // require(following[_userId] != _userIdToFollow, \"sender is already following\");\n        \n        //add the follower and increase follower count\n        // following[_userId] = _userIdToFollow;\n        users[_userId].followerCount.add(1);\n    }\n\n    function _unFollow(uint _userId, uint _userIdToUnFollow) public {\n        require(userToOwner[_userId] == msg.sender, \"unauthorized sender\");\n        //check that the users is already following\n        // require(following[_userId] == _userIdToUnFollow, \"sender is not following\");\n        \n        //remove the follower and decrease follower count\n        // delete following[_userId];\n        users[_userId].followerCount.sub(1);\n    }\n}",
  "sourcePath": "/Users/mjohansen/projects/solidity/soltweet/contracts/SolTweet.sol",
  "compiler": {
    "name": "solc",
    "version": "0.5.0+commit.1d4f565a.Emscripten.clang"
  },
  "schemaVersion": "2.0.1",
  "updatedAt": "2018-12-15T05:51:06.793Z"
}